:1000000012C02CC030C22BC02CC028C053C0A7C205
:1000100025C05EC223C022C021C020C01FC01EC098
:10002000C3C21CC01BC011241FBECFE5D4E0DEBF7D
:10003000CDBF10E0A0E6B0E0ECE9F9E002C0059029
:100040000D92A83DB107D9F710E0A8EDB0E001C0CE
:100050001D92A13FB107E1F767D39EC4D1CF18BB72
:10006000189508BB1895DF93CF9300D000D0CDB77B
:10007000DEB712BA87E881BB18BA87E087BB82BBBC
:1000800080E991E09A83898305C08B819C810196E8
:100090009C838B8389819A8101979A8389830196B6
:1000A000A1F712BA15BC0F900F900F900F90CF913F
:1000B000DF9108951F920F920FB60F9211248F9324
:1000C0009F93EF93FF9389B78F7389BF15BC439BB1
:1000D00006C043988091E1008F5F8093E10080919A
:1000E000EE00882309F458C08091E4009091E50067
:1000F0009695879599BD88BD8091E4009091E50023
:10010000880F991F9BBD8ABD8091EE00823091F4CB
:10011000E091D800F0E0E05AFF4F80818093EF003B
:10012000E091D800F0E0E459FF4FE08189B78860A2
:1001300089BF09C0E091D800F0E0E05AFF4F868106
:100140008093EF00E7E08091D8008F5F8093D80024
:100150008091D800863010F01092D800E2BB9091C8
:10016000EF009F70092F8091DD008A3F30F480916D
:10017000EF00182F12951F7001C0192F98BB8091A6
:10018000DD0083BD14BC88B7806C88BF89B7806CE4
:1001900089BF85B5816085BDFF91EF919F918F915A
:1001A0000F900FBE0F901F9018951EBC1DBC1CBC5D
:1001B0001FBC88E08EBD1092D8001092EE0008950A
:1001C00089B7806189BF8EB581608EBDF89472DF7A
:1001D00008958EB58E7F8EBD89B7877E89BF89B71A
:1001E0008F7389BF15BC12BA18BA08958091E700C1
:1001F0009091E80001979093E8008093E7000196C2
:1002000061F482E390E09093E8008093E70095B377
:100210008091E0008873892785BB089521E030E054
:1002200002C0220F331F8A95E2F7220F220F220FFE
:100230006130A1F0613018F06230A1F40AC085B3DA
:10024000822B85BB20958091E00082238093E00083
:1002500008958091E000822B8093E00085B3209583
:10026000282325BB089588E384BB1092E00082E335
:1002700090E09093E8008093E70085B3886385BBA6
:100280000895CF92DF92EF92FF92DF93CF9300D049
:10029000CDB7DEB787EE87B987E886B9369A369943
:1002A000FECFE4B0F5B0B0E4CB2EBCE9DB2E2AC023
:1002B00080E061E0B3DF81E061E0B0DF82E061E037
:1002C000ADDFDA82C98205C089819A8101979A835C
:1002D000898389819A81892BB9F780E060E09EDF6C
:1002E00081E060E09BDF82E060E098DFDA82C98233
:1002F00005C089819A8101979A83898389819A812E
:10030000892BB9F784B195B18054974588F2C7011C
:1003100060E371E02DD3F62E472F1A82198219C09F
:1003200029813A81E981FA812E543F4FEE54FF4FE3
:10033000808190E0A6E0880F991FAA95E1F76F2DC4
:10034000742F16D3F901608389819A8101969A836B
:10035000898389819A810C9718F30F900F90CF9120
:10036000DF91FF90EF90DF90CF900895DF93CF93D0
:1003700000D0CDB7DEB72091B2002093DD0084E03D
:100380008093EF0086E082BB9091EF009F70092F71
:100390008091DD008A3F30F48091EF00182F129594
:1003A0001F7001C0192F98BB8091DD0083BD14BC64
:1003B00088B7806C88BF89B7806C89BF85B581603C
:1003C00085BD88EA91E603C089819A8101979A8365
:1003D000898389819A81892BB9F789B78F7389BFFE
:1003E00015BC12BA80917200909173009093E50051
:1003F0008093E4002093DD008091BD008093F000A5
:1004000081E08093EE003091D80089B7806189BF88
:100410008EB581608EBDF8944DDEE2E7F0E0A2EB90
:10042000B0E01AC089819A8101979A83898380916B
:10043000D8003817B9F33091D8002150C0F7819116
:1004400091919093E5008093E4008D918093DD007D
:1004500080E0EA38F80711F02AE0EFCF0F900F9014
:10046000CF91DF91089578941F920F920FB60F925B
:1004700011248F939F9392B785B78C70883039F48D
:100480008FEB82BF1092E60085B78C6019C0809117
:10049000E600823018F01092E9000FC081E08093EE
:1004A000E900903410F480E404C0892F903C08F0F7
:1004B0008FEB880F8F578093DF0085B7837F88602D
:1004C00085BF9F918F910F900FBE0F901F90189531
:1004D00078941F920F920FB60F9211248F939F93CF
:1004E0008091E6008F5F8093E6008150803110F0AC
:1004F0001092E9008091E7009091E80001979093B5
:10050000E8008093E700019661F482E390E0909325
:10051000E8008093E70095B38091E0008873892715
:1005200085BBA8959F918F910F900FBE0F901F9044
:1005300018951092DF001092E6001092E90085B73E
:10054000837F85BF85B7886085BF12BE83E083BF88
:1005500089B7816089BF8BB780688BBF0895789415
:100560001F920F920FB60F9211248F939F93EF93C8
:10057000FF9389B7877F89BF8091D800E2EDF0E0D3
:10058000E80FF11D8081982F937098B982958F7034
:1005900087B9449A439AFF91EF919F918F910F9061
:1005A0000FBE0F901F9018951F920F920FB60F92CB
:1005B00011242F933F934F935F936F937F938F9368
:1005C0009F93AF93BF93EF93FF938CB59DB590939B
:1005D000DC008093DB001DBC1CBC43987894979A88
:1005E0004091DB005091DC002091E4003091E50067
:1005F000B901660F771F620F731F640F751F769521
:100600006795769567957093E5006093E40080E0C8
:1006100090E02AE031E040E050E08BD1672F782F66
:10062000892F99279B014091E4005091E500240F08
:10063000351F369527953093E5002093E4007BBD68
:100640006ABD1092E100FF91EF91BF91AF919F9130
:100650008F917F916F915F914F913F912F910F906B
:100660000FBE0F901F90189516B880B7886080BF96
:100670004398479881E08093E10008952091F0002D
:100680008BEF90E0821B91099695982F882797957C
:1006900087956EEF70E06CD18091DF0090E0AC0147
:1006A000649FC001659F900D749F900D1124880F69
:1006B000892F881F990B91956091F0007091DD0052
:1006C0002091EA003091EB004091EC005091ED0058
:1006D000860F911D871B9109AA2797FDA095BA2F18
:1006E000820F931FA41FB51F8093EA009093EB0025
:1006F000A093EC00B093ED008091EA009091EB00A4
:10070000A091EC00B091ED00F9E0B595A795979513
:100710008795FA95D1F7982F8091F000981710F4EB
:100720009091F000892F08957F928F929F92AF92BF
:10073000BF92CF92DF92EF92FF92DF93CF9300D0E0
:1007400000D0CDB7DEB788E384BB1092E00082E32F
:1007500090E09093E8008093E70085B3886385BBC1
:1007600090DD68E0E62E7724739458E1A52EB12C35
:1007700049E1842E912C30E4C32E3CE9D32E73DC66
:100780001EBC1DBC1CBC1FBCEEBC1092D80010923D
:10079000EE0016B880B7886080BF43984798709283
:1007A000E100C7DE0FB6F894A895A1BC0FBEE1BC6E
:1007B000789480E062E032DD81E060E02FDD82E06D
:1007C00060E02CDD8091E9008823E1F38091DF0077
:1007D0008830C0F780E060E021DD80E061E01EDD70
:1007E00081E062E01BDD8091DF008A30E0F381E090
:1007F00060E014DD81E061E011DD35DCB7DD809182
:10080000F00090E0A0E0B0E029E0880F991FAA1F57
:10081000BB1F2A95D1F78093EA009093EB00A09339
:10082000EC00B093ED0082E08093EE0062E0F6DC35
:100830008091E100FF248D3010F0FF24F39480912B
:10084000E900882311F422E0F22A8091DF008A3047
:1008500010F484E0F82A8091E4009091E500895931
:100860009A4338F48091E4009091E50080599140DA
:1008700010F487E0F82E8091D800882319F4FEDE6A
:100880008093DD00FF20A1F28EB58E7F8EBD89B7EB
:10089000877E89BF89B78F7389BF15BC12BA18BA12
:1008A0001092EE0080E060E0B9DC81E060E0B6DC50
:1008B00082E060E0B3DC84E0F81619F18F1548F0AF
:1008C00022E0F216A1F02F1578F081E0F816E1F49D
:1008D00009C026E0F21691F0F21658F087E0F816FB
:1008E00099F409C080E00EC080E061E097DC81E00F
:1008F00009C080E004C080E061E090DC81E061E05C
:100900008DDC82E061E08ADC9A82898209C0DC8227
:10091000CB828B819C8101979C838B830196C9F745
:1009200089819A8101979A838983019609F427CF57
:10093000EECF629FD001739FF001829FE00DF11D09
:10094000649FE00DF11D929FF00D839FF00D749F49
:10095000F00D659FF00D9927729FB00DE11DF91FF5
:10096000639FB00DE11DF91FBD01CF011124089552
:10097000AA1BBB1B51E107C0AA1FBB1FA617B707C5
:1009800010F0A61BB70B881F991F5A95A9F78095E1
:0C0990009095BC01CD010895F894FFCFB4
:10099C003123624654157501730276040305060370
:1009AC0005065F76EC660B5B9F51F749A043493E09
:1009BC00BA39CA355B32552FA72C432A1C282B2653
:1009CC006824CD225521FB1FBC1E951D831C841B46
:1009DC00971AB919E91825186E17C1161D16831523
:1009EC00F114323334353638393A3B3D3E3F4042D0
:1009FC004344454748494A4C4D4E4F505253545529
:080A0C005758022312032213C4
:00000001FF
