:020000020000FC
:10000000E3C45DC018951895099459C036C0189579
:100010003EC01895189573C01895189518951895A1
:1000200018956DC01895697A40744042405B9FB640
:100030008A9409F4E1E29FBE18959FB68A949FBE08
:10004000189520FD919A21FD939A22FD979AEDE251
:10005000832C24BC1895A89518958F12EECFA895DF
:1000600011FDEFCFE0916500852C20FD919821FDD9
:10007000939822FD979844BC18959FB640916300D1
:10008000415008F40E7F409363009FBE18959FB6C1
:10009000409164004395409364004F7019F4BB2075
:1000A00019F0BA949FBE189540916600439540930D
:1000B000660040916700439540936700F3CF4CB5CD
:1000C0005DB5829B0DC09FB65A5659BD48BD42E0F2
:1000D00045BF48E048BF9FBE18959FB604600BC05F
:1000E00098B693FCFACF9FB63A0148B559B5565920
:1000F000641A750A106143E045BF9FBE189590E5EC
:1001000078EC949A919A17D0E1F7089594E674EBFD
:10011000959A939A10D0E1F7089598E770EA909A2B
:10012000979A09D0E1F708959CE87CE8959A919A0E
:1001300002D0E1F70895F2BF82B78032E8F362B3EC
:100140006E7C62BB62B3657762BB60E1F2BFA8956B
:1001500082B78717E8F36A95C9F79A95089500D092
:1001600000D000D09FE060E1F2BF81E088BFA89599
:1001700088B780FFFDCF6A95B9F79A95A1F70895E2
:10018000809185009091860089569A4739F0C5E89C
:10019000D0E0E6E285918993CD38E1F7089580912A
:1001A000600081BF0F7DC5E8D0E080E890E0A895B1
:1001B000E199FDCF67B760FDFACFCD3881F09FBBE5
:1001C0008EBB0196E09A6DB317F06993F0CF7991E9
:1001D0007DBBF894E29A6713E19A7894E8CFC2DF86
:1001E0008FEF81BF0895000C111CAA1C8A95D9F7C6
:1001F0000895869FA12C969FA00CC11DDF1F879F8D
:10020000A00CC11DDF1F979FC00DD11D08951F7E3B
:10021000C3019053660B602763FD8AC007FD4DC084
:10022000C7E8D0E001C09BDF3FD0BC01A895FF9F8D
:10023000AA24C73831F49FE160348BE5780798F43D
:100240003CC080918700681780918800780760F72C
:1002500092E2C93841F080918900681780918A0044
:10026000780710F390E2892EA89514FFFDCF1F7E2A
:100270001BD0080E191EAF1E861B970B80569F4F72
:100280008154914080F68A9479F783E0ACDF19922B
:10029000A99243DFC938D9F265DF3FDFCB3811F0CF
:1002A00061DF3BDF7CDF46C0C30103FF0895A3E0AD
:1002B000880F991FAA95E1F708951F76C30190331F
:1002C00060F003FD11C0C0917F00D09180008C1BB5
:1002D0009D0B60F4CC27DD2716C0963028F0803CBB
:1002E00062E1960703FD78F30460089560917B0056
:1002F00070917C00C8E3D0E07CDFC73583E0D8078D
:1003000010F0C7E5D3E0C0937900D0937A0001FFE5
:1003100003C082E0B82EA6C08CE0B816BF1E0895B8
:10032000C3E07695679596958795CA95D1F7089518
:1003300088E008278091890090918A006091870069
:100340007091880003FDECDF80937F009093800024
:10035000681B790B05D080937B0090937C000895F7
:1003600085E595E00196A8959F3F890721F0C0EEAD
:10037000DCEF3FDFB9F70895F8948CB59DB5609137
:10038000640078B77894903872FD6F1FC09169004F
:10039000D0916A00A0906B008093690090936A00EE
:1003A00060936B0000906C0010906D0070916E0077
:1003B000C0936C00D0936D00A0926E0080199109DB
:1003C000670B94306F0728F480E094E060E0D694E7
:1003D000C79490386F07A7E5B3E0F0F0A1E0B1E271
:1003E0007D01A0E8BBEAFF9F771B0AC0771F001CB6
:1003F000111C78170906160618F0781B090A160A48
:10040000AA1FBB1FEE1CFA9489F7A095B095A63DD4
:10041000BF0710F4A6EDB0E07D0180936F009093CC
:10042000700060937100669597958795C0916900FB
:10043000D0916A00A0906B0073E33CD0C09372002F
:10044000D0937300A092740090316F0718F02F7B47
:1004500054D002C020648CD014FD2FCFC0917900FD
:10046000D0917A00CE15DF0508F0E701CC15DD0547
:1004700008F0E60187E593E08C1B9D0BB1F0209618
:10048000B1F01D7F116016FF04C0880F991FCC0FBB
:10049000DD1F71E29F1377E1C09580951E01F894EE
:1004A0002C0170936500789408951360F2CF1C7F3F
:1004B0007DE2F2CF879FC10DDF1FAF1E979FC00D5A
:1004C000D11DAF1E679FD00DA11C089580916F00B4
:1004D0009091700060917100C0917200D091730092
:1004E000A09074000895F2DFC80FD91FA61EC80F90
:1004F000D91FA61E02C0EADFDDDF79B7072E7B7E9B
:1005000079BF70E1F894DBBDCABD78BF8CB59DB5ED
:10051000789401606091640078B7903872FD6F1F25
:10052000C81BD90BA60AA09263000AF40E7F09BE6D
:10053000089526FFD8CF80916F0090917000C091F0
:100540007200D0917300C80FD91FC80FD91F10C0F7
:1005500026FFD1CF80916F0090917000C091720002
:10056000D0917300879FC10DDF1F979FC00DD11DD4
:1005700070E1F894DBBDCABD78BF8CB59DB5016054
:10058000F09363007894C81BD90B0AF40E7F08958A
:10059000279670E1F8948CB59DB5C80FD91FDBBDC7
:1005A000CABD78BFA092630001607894089514FDDD
:1005B00084DE00FDFCCF0895F5BD80E488BFEBE24A
:1005C00082B38E7C82BB82B3857782BB0895829B87
:1005D000F09366008091660085FF0895E0E0F8944E
:1005E000FCE185919491F0E0789401960297A8F34C
:1005F000F894F7BBF4BBF1BB88E181BDF1BD8091FC
:10060000600081BFFDCA00240FBEEFE5F4E0FEBF2D
:10061000EDBF0292E036F00509F4EEE1E015F005D9
:10062000C1F781B780936000A4B6F4BFF8BBF7BBF5
:10063000F5BBF4BBF2BB8BEB81BB82E083BF81E0F7
:100640008EBDF5BD88E181BD88E081BD8BDDA7DD74
:1006500097DD7894A0FAAF1226F451DD57DD5DDD09
:100660001EC0A2FE04C059DD4ADD006818C0A1FE0C
:1006700002C05ADD14C0F894A3FE05C040DD3FDD82
:100680004CDD4BDDFBCF6BDD4A2D58E040FF3EDDFE
:1006900040FD4ADD65DD46955A95C1F7F4CF0D7FE3
:1006A00049DE84E588BF89BF83E085BF80E48BBFD6
:1006B000BB24137EF0936600F0936700A89514FDA9
:1006C0000AC085DF809167008837C1F78CE380938B
:1006D000670023DDF3CF9BDDC0917900D0917A00D4
:1006E000209631F78AE0B81648F3812F8C7009F014
:1006F000FBBF1ADD19DD18DD0B7F5EDF0D7FF09388
:100700006600F0936700A89514FD0CC0BB20D9F7D4
:100710005EDF809167008E31B1F74EDF23DDFDDCB7
:10072000F5DCBDCFCADDBB2071F3209641F344DF79
:1007300080B7886080BF3798CEE8D0E06E01026055
:10074000D6D0F0937500F0937600F093770082E0B6
:10075000B82E86E0809362008CE08093610081E097
:1007600085BD17FD37C0C7D083E087B9949810FDC9
:10077000909ABFD084E087B9F894287F226082B332
:10078000979892B38913939A7894B5D082E087B9F9
:10079000909810FD959AADD083E087B9F894287FA2
:1007A000216082B3939892B38913919A7894A3D0DD
:1007B00084E087B9959810FD949A9BD082E087B920
:1007C000F894287F246082B3919892B38913979A02
:1007D000789436C08ED084E087B9F894287F216061
:1007E00082B3979892B38913919A789484D083E0D6
:1007F00087B9949810FD959A7CD082E087B9F894D7
:10080000287F226082B3919892B38913939A789447
:1008100072D084E087B9959810FD909A6AD083E0F1
:1008200087B9F894287F246082B3939892B3891390
:10083000979A789460D082E087B9909810FD949A46
:1008400080916100803010FF69F1E601209659F136
:100850008C30C8F4839580936100629686ED90E0B9
:1008600060917700709176007C5F7093760021F440
:10087000605FD1F060937700603168F0703358F0BA
:1008800083E290E008C01F7BF0937700F09376003E
:100890006B9687E593E0C817D90710F06C0161CF1C
:1008A0006E015FCF2ACF43CF87DE0D7F58DC57DC48
:1008B0003BDC03DD2096D1F7F2CEEBE282B3857705
:1008C00082BB81E0809362005CC016FD08C0BC3032
:1008D00030F0BBE0AB1708F4AB2F2BDE45C0F09334
:1008E000610070917500715F16FD70937500106462
:1008F00048C01F7D01C0106280916200815050F09D
:100900008093620016FF18C0C0E0DFEFAF2E40DE1C
:10091000A3E029C0EB3209F4EDE216FD3EC07BE115
:1009200017DE45DE79E514DE00FFC7CF14FDC5DC18
:1009300068B1612765FDF8CFA0917000B09171009A
:10094000B695A795B695A795A330BF0750F051F07F
:10095000AA31BF0708F0AAE1AC3020F073E3F8DD5C
:1009600002C0A3E0E6DDBA2F00FFAFCF14FDA5DC87
:1009700068B1612765FD03C0AB17AF1FF5CFAA951E
:1009800099F7FADC16FF13DE809162008F131E7F49
:10099000BF1208958F918F91B0CEC0E0D0E070E08B
:1009A000A72E80916100823030F47091750080E054
:1009B00090E860E07FDDECDDFADDC0E0D8EB7BE0C5
:0A09C000A72EE6DDAFEFCFCF1ECE6D
:101C0000E4E0FFE5FEBFEDBF00E0ECEBFEE0C0E886
:101C1000D0E0A0E6B0E042E045BD5CEE539571F047
:101C200040EC04BD48BFA03619F0E8B6E6FC46C05B
:101C30008299F9CF04BD48BFE8B6E6FCE1C1829BBA
:101C4000FBCF04BD48BFE8B6E6FCE8CF8299FBCFE6
:101C500034B404BD48BFE8B6E6FCD2C1829BFBCFDA
:101C600024B4022C030C802C07940694402C069478
:101C70008008809420943094409460EE83E084BC8B
:101C800048BFE8B6E6FCBCC1829BFBCF84BC48BF22
:101C9000E8B6E6FCC3CF8299FBCF0894E8B6E6FC31
:101CA00023C0829BFBCFE8B6E6FCB8CF8299FBCF7E
:101CB0008894E8B6829BE6FC17C0FBCF43BC87E163
:101CC000929A8A9A34BC48BFE8B6E6FEFDCF929855
:101CD00024BC48BFE8B6E6FEFDCF8A9589F7C0E68A
:101CE000D0E060E081E00BC0679548F6815068F570
:101CF0005CEE0994CA17DB07D1F0699188E066951C
:101D0000929A34BC48BFE8B610F0E7FC02BBE6FE8E
:101D1000FACF929808F0929A24BC48BFE8B610F027
:101D2000E7FC02BBE6FEFACF8A9549F7E3CF929A29
:101D300034BC48BFC0E8D0E0A0E6B0E0E8B6E7FEBB
:101D4000FDCF8A9802BB6ACF80E060E898CFECEBC9
:101D5000FEE0C0E8D0E0F8CF009000000090000066
:101D60000090000000900000009000000090000033
:101D70000090000000900000000000006B3121F78F
:101D8000562E3796E1CF962E56263496DDCF762EF8
:101D900056263496D9CF662E56263496D5CF6E3039
:101DA000B1F656263596D0CF69935626CF3584E0C6
:101DB000D80768F681E0681A700A09F43C96C4CF27
:101DC0006511C5CFC0E8D0E0699199918991FD0175
:101DD0007BE170839182028372E073837EE074837F
:101DE0006583068317966130A1F48BE0838388E0D6
:101DF0008D93EF01ECEDFFE185918D93E43EE1F7EA
:101E0000FE01819161918627EA17FB07D9F78D932F
:101E10009ECF6D3151F5792F90E0039683839283A5
:101E200003970D938A95E9F789916991603380074B
:101E300094E0790779F460878991803059F4699149
:101E400060308EE131F0613083E919F0623087E073
:101E500009F482870D93D5CF8017900709F5D990A3
:101E6000C9905601AA0CBB1CCCCF6330E1F06230A4
:101E700041F2603131F2613121F2663069F3623151
:101E8000F1F1833F73E0970758F4643109F166314B
:101E900069F127966531C1F16331F9F10000000065
:101EA00080EC8683AECF90398FE071F0913982E07B
:101EB00059F092398AE041F0943982E329F0903860
:101EC00080E011F0913861F78D9383E0838399CF9F
:101ED00049D0EF01F5018FD076FDFDCF65916D936F
:101EE0000197E1F75F01FE010D938BCF3BD011E02D
:101EF0003ED06DB36D930197D9F70D9382CF47D044
:101F0000000080E092E0689416E06FEF0EF06991B7
:101F10002ED00197D1F7E89474CF8F7F61E07F01D5
:101F2000F5010990199068D032960297D1F70F0108
:101F3000F501500163E0E03C7FE1F70719F058D06C
:101F4000F7015FCF0BD065E009D061E107D0F8CF92
:101F500077B770FDFDCFE199FECF0895F9DF67BF38
:101F6000E8950895039692838383039708953AD062
:101F7000DFBACEBA0894C01ED01E762FE09A6DB399
:101F8000671312FF08957DBBE29A1CBB08957F0181
:101F9000E0E0FCE163E0E054F0402ED0E1F76F01B7
:101FA000F70108950000000000000000000000009C
:101FB0000000000000000000000000000000000021
:101FC000687474703A2F2F6769746875622E636F36
:101FD0006D2F73696D2D2F7467792F00415652490B
:101FE00053505F3277B770FDFDCFE199FECF089572
:101FF00003D065E001D061E1F5DF67BFE8950895A2
:00000001FF
